:020000040800F2
:1000000098160020418600082584000827840008EF
:10001000298400082B8400082D84000800000000BB
:10002000000000000000000000000000EF4A00088F
:100030002F84000800000000A94A0008318400084D
:10004000D1860008D5860008D9860008DD8600081C
:10005000E1860008E5860008E9860008ED860008CC
:10006000F1860008F5860008F9860008FD8600087C
:100070000187000805870008098700080D87000828
:100080001187000815870008198700081D870008D8
:100090002187000825870008298700082D87000888
:1000A000318700083984000835870008398700083F
:1000B000438400083D870008418700084587000801
:1000C000498700084D8700085187000855870008B8
:1000D000598700085D870008618700086587000868
:1000E000698700086D87000871870008000000001C
:1000F0000000000000000000000000000000000000
:1001000000000000000000000000000000000000EF
:100110000000000C000C000C000C000C000C000C8B
:10012000000C000C000C000C0000000C000C000087
:10013000000000000000001B001B001B001B001B38
:1001400000000000000000000000000000000000AF
:1001500000000000000000000000801980198019D4
:100160008019C07FC07F80190033C07FC07F0033FB
:100170000033003300330000000000000000001EC8
:10018000003F807580650074003C001E00078005FC
:10019000806580658075003F001E0004000400003B
:1001A0000000007000D840D8C0D880D90073000685
:1001B000000C801BC036C066C046C006800300002D
:1001C000000000000000001E003F00330033003339
:1001D000001E000CC03CC066806380618063C03E2E
:1001E000801C0000000000000000000C000C000C4F
:1001F000000C000C000000000000000000000000E7
:10020000000000000000000000000000800000016D
:100210000003000600060004000C000C000C000C9B
:10022000000C000C00040006000600030001800022
:10023000002000100018000C000C0004000600064E
:1002400000060006000600060004000C000C001862
:10025000001000200000000C002D003F001E0033A5
:10026000000000000000000000000000000000008E
:100270000000000000000000000000000000000C72
:10028000000C000C000CC0FFC0FF000C000C000CA8
:10029000000C000000000000000000000000000052
:1002A000000000000000000000000000000000004E
:1002B000000000000000000C000C00040004000816
:1002C000000000000000000000000000000000002E
:1002D0000000001E001E00000000000000000000E2
:1002E000000000000000000000000000000000000E
:1002F0000000000000000000000000000000000CF2
:10030000000C0000000000000000000300030003D8
:100310000006000600060006000C000C000C000C95
:100320000018001800180000000000000000001E67
:10033000003F0033806180618061806D806D8061ED
:10034000806180610033003F001E0000000000005B
:1003500000000006000E001E003600260006000603
:100360000006000600060006000600060006000063
:10037000000000000000001E003F8073806180616B
:10038000800100030006000C001800300060807F30
:10039000807F0000000000000000001C003E0063A1
:1003A00000630003000E000E0003800180018061E5
:1003B0008073003F001E00000000000000000006E7
:1003C000000E000E001E001E0016003600360066ED
:1003D000807F807F0006000600060000000000000D
:1003E0000000007F007F006000600060006E007F02
:1003F00080638001800180618073003F001E0000E7
:10040000000000000000001E003F8033806100609B
:10041000006E007F80738061806180618033003F67
:10042000001E0000000000000000807F807F80012F
:100430000003000300060006000C000C000C00087E
:100440000018001800180000000000000000001E46
:10045000003F8063806180610021001E003F806159
:10046000806180618061003F001E0000000000008C
:100470000000001E003F0073806180618061807316
:10048000803F801D800180610073003F001E0000DE
:100490000000000000000000000000000000000C50
:1004A000000C000000000000000000000000000C34
:1004B000000C000000000000000000000000000030
:1004C00000000000000C000C000000000000000014
:1004D0000000000C000C00040004000800000000F4
:1004E0000000000080008003000E0038006000382B
:1004F000000E8003800000000000000000000000EB
:1005000000000000000000000000807F807F0000ED
:100510000000807F807F00000000000000000000DD
:10052000000000000000000000000000004000701B
:10053000001C000780010007001C00700040000044
:1005400000000000000000000000001F803FC0719C
:10055000C060C000C00180030007000E000C000C4A
:100560000000000C000C0000000000000000001E55
:10057000003F803180718063806F806D806D806FFF
:10058000806700600032003E001C00000000000098
:100590000000000E000E001B001B001B001B803122
:1005A0008031803F803F8031C060C060C06000000B
:1005B000000000000000007C007E00630063006318
:1005C0000063007E007E0063806180618063007F45
:1005D000007E0000000000000000001E003F80318F
:1005E0008061006000600060006000600060806109
:1005F0008031003F001E0000000000000000007C71
:10060000007F0063806380618061806180618061C0
:10061000806100630063007E007C00000000000039
:100620000000807F807F0060006000600060007FCD
:10063000007F0060006000600060807F807F0000BD
:10064000000000000000807F807F0060006000608C
:100650000060007F007F006000600060006000605C
:1006600000600000000000000000001E003F80311C
:1006700080610060006000608063806380618061F1
:100680008031803F001E00000000000000008061FB
:1006900080618061806180618061807F807F806116
:1006A00080618061806180618061000000000000E5
:1006B0000000003F003F000C000C000C000C000C80
:1006C000000C000C000C000C000C003F003F000070
:1006D0000000000000008001800180018001800195
:1006E0008001800180018001806180618073003F12
:1006F000001E0000000000000000C0608061006378
:1007000000660066006C0078007C0066006600638E
:1007100080618061C0600000000000000000006097
:1007200000600060006000600060006000600060C9
:10073000006000600060807F807F0000000000009B
:100740000000C071C071C07BC07AC06AC06AC06E50
:10075000C064C060C060C060C060C060C0600000B5
:1007600000000000000080718071807980798079BC
:10077000806D806D806D8065806780678067806335
:1007800080630000000000000000001E003F0033F6
:100790008061806180618061806180618061806151
:1007A0000033003F001E0000000000000000007E3B
:1007B000007F80638061806180618063007F007E54
:1007C0000060006000600060006000000000000049
:1007D0000000001E003F0033806180618061806105
:1007E00080618061806580670033803F401E00002B
:1007F000000000000000007E007F80638061806157
:100800008063007F007E006600630063806180611A
:10081000C0600000000000000000000E001F8031DA
:10082000803100300038001E000780038061806145
:100830008031003F001E0000000000000000C0FFEB
:10084000C0FF000C000C000C000C000C000C000C95
:10085000000C000C000C000C000C0000000000005C
:100860000000806180618061806180618061806161
:1008700080618061806180618073003F001E0000A4
:10088000000000000000C060C060C06080318031A6
:100890008031001B001B001B001B000E000E000E11
:1008A00000040000000000000000C0C0C0C0C0C0C4
:1008B000C0C0C0C0C0CC804C804C805E8052805292
:1008C0008073806180610000000000000000C0C0F3
:1008D000806080610033003B001E000C000C001E95
:1008E000001F003B80718061C0C00000000000005C
:1008F0000000C0C08061806100330033001E001E14
:10090000000C000C000C000C000C000C000C000093
:10091000000000000000803F803F800100030003D2
:100920000006000C000C0018001800300060807FEA
:10093000807F000000000000000F000F000C000C82
:10094000000C000C000C000C000C000C000C000C47
:10095000000C000C000C000C000F000F0000001831
:1009600000180018000C000C000C000C000600061B
:100970000006000600030003000300000000000062
:10098000001E001E00060006000600060006000607
:100990000006000600060006000600060006000627
:1009A000001E001E0000000C000C001E0012003390
:1009B0000033806180610000000000000000000042
:1009C0000000000000000000000000000000000027
:1009D0000000000000000000000000000000000017
:1009E0000000000000000000E0FF000000000038F0
:1009F0000018000C000000000000000000000000D3
:100A000000000000000000000000000000000000E6
:100A100000000000000000000000001F803F806117
:100A20008001801F803F80618063807FC03800002C
:100A30000000000000000060006000600060006EC8
:100A4000007F807380618061806180618073007F3E
:100A5000006E000000000000000000000000000028
:100A60000000001E003F80738061006000608061B4
:100A70008073003F001E00000000000000008001A5
:100A8000800180018001801D803F807380618061D2
:100A9000806180618073803F801D00000000000045
:100AA00000000000000000000000001E003F007376
:100AB0008061807F807F00608071003F001E0000A9
:100AC000000000000000C007C00F000C000C807F79
:100AD000807F000C000C000C000C000C000C000CC3
:100AE000000C0000000000000000000000000000FA
:100AF000801D803F80738061806180618061807330
:100B0000803F801D80018063007F003E0000006008
:100B1000006000600060006F807F80718061806194
:100B20008061806180618061806100000000000060
:100B300000000006000600000000003E003E000627
:100B4000000600060006000600060006000600007B
:100B5000000000000006000600000000003E003E0D
:100B60000006000600060006000600060006000655
:100B700000060046007E003C00000060006000604F
:100B80000060806100630066006C007C007600639A
:100B900000638061C0600000000000000000003EB3
:100BA000003E0006000600060006000600060006DD
:100BB0000006000600060006000600000000000017
:100BC0000000000000000000000080DDC0FFC0CE7B
:100BD000C0CCC0CCC0CCC0CCC0CCC0CCC0CC000041
:100BE0000000000000000000000000000000006F96
:100BF000807F8071806180618061806180618061BF
:100C00008061000000000000000000000000000003
:100C10000000001E003F8073806180618061806100
:100C20008073003F001E0000000000000000000074
:100C300000000000006E007F807380618061806131
:100C400080618073007F006E006000600060006063
:100C50000000000000000000801D803F8073806164
:100C60008061806180618073803F801D8001800190
:100C7000800180010000000000000000000000670B
:100C8000803F00390030003000300030003000304C
:100C90000030000000000000000000000000000024
:100CA0000000001E803F80610060007F803F800167
:100CB0008061007F001E00000000000000000000B6
:100CC000000800180018007F007F001800180018A6
:100CD000001800180018801F800F0000000000009E
:100CE0000000000000000000000080618061806161
:100CF00080618061806180618063807F803D0000D1
:100D00000000000000000000000000000000C060C3
:100D1000803180318031001B001B001B000E000E53
:100D200000060000000000000000000000000000BD
:100D3000000080DD80DD80DD005500550055007726
:100D400000770022002200000000000000000000E8
:100D5000000000000000806100330033001E000C22
:100D6000000C001E00330033806100000000000012
:100D700000000000000000008061806180310033CD
:100D80000033001B001B001B000E000E000E001C99
:100D9000007C007000000000000000000000C07F28
:100DA000C07F800100030006000C00180030C07FE7
:100DB000C07F0000000000008003800700060006DE
:100DC000000600060006000E001C001C000E0006B7
:100DD00000060006000600068007800300060006E5
:100DE00000060006000600060006000600060006D3
:100DF00000060006000600060006000600060006C3
:100E00000038003C000C000C000C000C000C000E24
:100E100000070007000E000C000C000C000C000C7A
:100E2000003C00380000000000000000000000004E
:100E300000008038807F00470000000000000000B4
:100E400000000000000000000000000000000000A2
:100E50000000000000000000000000000000000092
:100E60000000000000000000000000000000000082
:100E70000000000000000000000000000000000072
:10153000003800440044004400380000000000006F
:10154000000000000000000000000000000000009B
:10155000000000000000000000000000000000008B
:10156000000000000000000000000000000000007B
:10157000000000000000000000000000000000006B
:101760000000000000000000000000000000000E6B
:10177000000E001B001B001B001B80318031803FCE
:10178000803F8031C060C060C06000000000000089
:101790000000007F007F0060006000600060007E4D
:1017A000007F1063806180618063007F007E0000A5
:1017B000000000000000007C007E00630063006306
:1017C0000063007E007E0063806180618063007F33
:1017D000007E0000000000000000807F807F00602D
:1017E00000600060006000600060006000600060F9
:1017F0000060006000600000000000000000001FAA
:10180000001F8031803180318031803180318031E2
:10181000803180318031C07FC07FC060C0600000F7
:101820000000807F807F0060006000600060007FBB
:10183000007F0060006000600060807F807F0000AB
:10184000000000000000C064C06480248024803553
:101850000015001F001F0015803580248024C064FF
:10186000C0640000000000000000001F803FC06056
:10187000C0608001000700078001C000C000C06098
:10188000C071803F001F0000000000000000C06029
:10189000C060C060C060C060C060C060C061C06344
:1018A000C066C06CC078C070C0600000000000005E
:1018B000000AC064C060C060C060C060C060C0603A
:1018C000C061C063C066C06CC078C070C0600000FA
:1018D000000000000000C0608061006300660066D8
:1018E000006C0078007C00660066006380618061A7
:1018F000C0600000000000000000C00FC01FC0302A
:10190000C030C030C030C030C030C030C030C03057
:10191000C030C070C0600000000000000000C06067
:10192000C060C071C07BC06EC064C060C060C06079
:10193000C060C060C060C060C06000000000000007
:101940000000806180618061806180618061807F52
:10195000807F806180618061806180618061000042
:10196000000000000000001E003F00338061806125
:101970008061806180618061806180610033003FAF
:10198000001E0000000000000000C07FC07FC0609B
:10199000C060C060C060C060C060C060C060C06047
:1019A000C060C060C0600000000000000000007E59
:1019B000007F80638061806180618063007F007E42
:1019C0000060006000600060006000000000000037
:1019D0000000001E003F80318061006000600060F8
:1019E00000600060006080618031003F001E0000E8
:1019F000000000000000C0FFC0FF000C000C000C45
:101A0000000C000C000C000C000C000C000C000C76
:101A1000000C0000000000000000C060C060C0605A
:101A2000C060C060C060C060C03FC01FC000C000D8
:101A3000C000803F003F0000000000000000001ECA
:101A4000003F806D804C804C804C806D003F001EBC
:101A5000000C000C000C000C000C0000000000004A
:101A600000008061806100330033001E001E000C06
:101A7000000C001E001E00330033806180610000F6
:101A800000000000000080618061806180618061F1
:101A90008061806180618061806180618061C07FE0
:101AA000C07FC000C00000000000C060C060C06017
:101AB000C060C060C060C060C03FC01FC000C00048
:101AC000C000C000C0000000000000000000806DE9
:101AD000806D806D806D806D806D806D806D806D9E
:101AE000806D806D806D807F807F00000000000031
:101AF0000000806D806D806D806D806D806D806D6B
:101B0000806D806D806D806D806DC07FC07FC000F6
:101B1000C000000000000070007000300030003095
:101B20000030003E003F8031803180318031003F05
:101B3000003E0000000000000000C060C060C06007
:101B4000C060C060C060C078C07CC066C066C0664F
:101B5000C066C07CC078000000000000000000608B
:101B600000600060006000600060007E007F8061B7
:101B7000806180618061007F007E000000000000C5
:101B80000000007E807F8001C000C000C007C00749
:101B9000C000C000C000C0008001807F007E000047
:101BA0000000000000008067C06FC06CC06CC06C9B
:101BB000C07CC07CC06CC06CC06CC06CC06CC06FA2
:101BC00080670000000000000000C01FC03FC07020
:101BD000C060C060C060C070C03FC01FC00EC01CED
:101BE000C038C070C06000000000000000000000AD
:101BF000000000000000001F803F80618001801F06
:101C0000803F80618063807FC0380000000000005A
:101C100000000000000000000000007F007F006066
:101C20000060007F807F80618061807F007F000096
:101C30000000000000000000000000000000007F25
:101C4000807F80618061007F807F80618061807F94
:101C5000007F000000000000000000000000000005
:101C60000000007F007F0060006000600060006096
:101C70000060006000600000000000000000003E06
:101C8000003F80038001801F803F807380618061FE
:101C9000806180618073003F001E00000000000032
:101CA00000000000000000000000001E003F007364
:101CB0008061807F807F00608071003F001E000097
:101CC0000000000000000000000000000000C064F0
:101CD000C06480358035001F001F80358035C064AA
:101CE000C0640000000000000000000000000000D0
:101CF0000000003F807F80618001000700078001B5
:101D00008061807F003F00000000000000000000B4
:101D1000000000000000806180618061806180635C
:101D20008067806D80798071806100000000000014
:101D3000000000000000000C0000806180618061F4
:101D4000806180638067806D807980718061000030
:101D500000000000000000000000000000008061A2
:101D600000630066006C00780078006C0066006319
:101D70008061000000000000000000000000000082
:101D80000000803F803F8031803180318031803160
:101D900080318071806100000000000000000000C0
:101DA00000000000000080618073807F806D806192
:101DB00080618061806180618061000000000000BE
:101DC0000000000000000000000080618061806170
:101DD0008061807F807F80618061806180610000A0
:101DE0000000000000000000000000000000001ED5
:101DF000003F807380618061806180618073003FFB
:101E0000001E0000000000000000000000000000B4
:101E10000000807F807F806180618061806180615F
:101E2000806180618061000000000000000000000F
:101E3000000000000000007F107F80618061107F43
:101E4000007F006000600060006000000000000093
:101E500000000000000000000000001E003F807332
:101E600080610060006080618073003F001E0000A0
:101E70000000000000000000000000000000807F63
:101E8000807F000C000C000C000C000C000C000CFF
:101E9000000C000000000000000000000000000036
:101EA00000008061806180618061807F803F80016F
:101EB0008001803F003F00000000000000000000A3
:101EC000000000000000803FC07FC064C064C064A8
:101ED000C07F803F000400040004000000000000F8
:101EE00000000000000000000000806100330033AB
:101EF000001E000C000C001E003300338061000047
:101F0000000000000000000000000000000000636E
:101F10000063006300630063006300630063807F0D
:101F2000807F8001800100000000000000000000B0
:101F3000000080618061806180618061807F803F7E
:101F4000800180018001000000000000000000000E
:101F5000000000000000806D806D806D806D806DE0
:101F6000806D806D806D807F807F000000000000AC
:101F700000000000000000000000806D806D806D9A
:101F8000806D806D806D806D806DC07FC07FC00072
:101F9000C000000000000000000000000000007011
:101FA00000700030003E003F003300330033003F3C
:101FB000003E0000000000000000000000000000E3
:101FC0000000C060C060C060C07CC07EC066C066EB
:101FD000C066C07EC07C0000000000000000000061
:101FE000000000000000006000600060007E007FD4
:101FF000006300630063007F007E000000000000BB
:1020000000000000000000000000007E007F800350
:102010008001801F801F80018003007F007E000000
:1020200000000000000000000000000000008067C9
:10203000C06FC06CC06CC07CC07CC06CC06CC06F1A
:1020400080670000000000000000000000000000A9
:102050000000803F807F80618061807F803F800DB5
:102060008019803180610000000000002DE9F043FC
:102070009FB000BF66A6269CDFF8E48A02918DF827
:102080003B4000210B914FF0FF37044691461D461F
:102090000AE019F8011B0298A0470028029000F0FE
:1020A000A4800B98401C0B9099F8000050B1252893
:1020B000EFD100200021059006910790089109902A
:1020C0000A9103E00B98A7E041F0010119F8010F14
:1020D0002028F9D023280CD02B2804D02D2805D077
:1020E000302809D083E041F00201EFE741F004011C
:1020F000ECE741F00801E9E741F01001E6E70020D4
:102100000D900AE00D98404505DA00EB800302EBE4
:102110004302303A0D9209F1010999F80020A2F129
:1021200030000A28EED399F800002E2818BF0C972B
:1021300026D119F8010F2A2808D12868286009F14A
:10214000010950F8042B28600C9219E02D280CBFCF
:1021500019F8010B002000220C920BE040B90C9AF8
:10216000424505DA02EB820203EB4203303B0C935B
:1021700009F1010999F80030A3F130020A2AEDD3E0
:10218000ADF83810304699F8001000F085FE08B11F
:1021900019F8010B8DF83A009DF83A00682804BF41
:1021A00099F80010682903D162208DF83A0008E000
:1021B0006C2804BF99F800006C2804D171218DF8B7
:1021C0003A1009F1010910A804902A4619F8013BB8
:1021D0006946204600F060F838B910AA69462046E2
:1021E00000F08CF900287FF55FAF384614E02A280C
:1021F00085D12A682A6052F8040B2A6000280D90C5
:1022000003D540420D9041F0040109F101098AE72C
:10221000686A6C747A4C00001FB0BDE8F0836228D5
:1022200020D0682811D06A2803D06C2827D07128C4
:1022300025D10868C01D20F007000860D0E9002300
:1022400008300860194610467047002A0A680A607C
:10225000106803D0121D0A6000B217E0121D0A6058
:1022600080B217E0002A0A680A60106803D0121DC5
:102270000A6040B20AE0121D0A60C0B20AE0002AF9
:102280000A680A60106803D0121D0A60C1177047FF
:10229000121D0A600021704770B51C460D46B4F14E
:1022A00025002E69114600F017811C386AD0001FE6
:1022B000022867D9133843D0093863D0801E16D05E
:1022C000401E1ED0401E02285CD9001F19D0401F9E
:1022D00000F08380401E33D0401E00F0CD80C01E31
:1022E00000F0D880801E2BD0C01E29D0FAE068698B
:1022F000421C6A610A680A6052F8043B0A6033545F
:10230000FAE095F83A000122FFF789FFC5E90001DC
:102310000023994204DA6869411C69612D210DE0AE
:10232000288F810704D56869411C69612B2105E06C
:10233000C00722D56869411C6961202131541CE025
:1023400095F83A000022FFF76AFFC5E9000195F809
:102350003800010711D5D5E900230020834208BFCA
:1023600082420AD044F02000782806D168693021E2
:102370003154401C411C6961345421466869304421
:10238000E86083E00868C01D20F007000860D0E91D
:10239000002308300860C5E90023D5E90001C80F13
:1023A00004D06869411C69612D210DE0288F8107E7
:1023B00004D56869411C69612B2105E0C00704D57B
:1023C0006869411C69612021315468693044E860C2
:1023D0002146284600F0C4F98EE005F13A02507813
:1023E00020B14FF0FF340FF648205EE010786228ED
:1023F00008D0682824D06A2812D06C282ED07128E2
:102400000ED02BE00A680A6052F8040B0A6020B96B
:102410004FF0FF340FF6302047E0E96A01706BE0BF
:102420000A680A6052F8040B0A6020B94FF0FF34C2
:102430000FF6142039E0EA6AD317C0E900235BE005
:102440000A680A6052F8040B0A6020B94FF0FF34A2
:102450000FF6F41029E0E96A01804DE00A680A608D
:1024600052F8040B0A6020B94FF0FF340FF6D81071
:102470001BE0E96A01603FE00A680A6052F8040B59
:102480000A600021C5E90001EE607821284600F0CD
:10249000BBF831E00868086050F8044B0860EC6055
:1024A0003CB94FF0FF340FF6B81000F001FD201AD0
:1024B00070BD2E6B002E04D5204600F019FD044699
:1024C00008E032460021204600F02EFD002814BF0F
:1024D000041B3446AC610FE06869411C6961252129
:1024E000315409E06969481C686125227254210051
:1024F00002D0411C69613454002070BD2DE9FC41BB
:102500000F460646796B7869BC6A091A386A091A57
:10251000B869091A786A091AF869091A97F8380027
:102520000C1B410790460FD42021002C8DF8001081
:102530000ADD254601236A463946304600F060FC34
:1025400000285DD16D1EF5D17B6942463946304683
:1025500000F056FC002853D130208DF800003D6A71
:10256000002D09DD01236A463946304600F048FC5B
:10257000002845D16D1EF5D1BB69FA683946304651
:1025800000F03EFC00283BD130208DF800007D6A31
:10259000002D08DD01236A463946304600F030FC44
:1025A00070BB6D1EF6D1F868B969FB6942183946EF
:1025B000304600F025FC18BB30208DF80000BD6AC5
:1025C000002D08DD01236A463946304600F018FC2C
:1025D000B0B96D1EF6D197F8380041070DD520210E
:1025E000002C8DF8001008DD01236A46394630467C
:1025F00000F006FC20B9641EF6D10020BDE8F6818B
:102600004FF0FF30BDE8F6812DE9FC4707468A46CA
:102610003E69BAF16F0F08BF082405D04AF02001C7
:10262000782914BF0A2410243C25D7E90023BAF1E5
:10263000640F18BFBAF1690F9046994606D1002180
:102640008B4203DAD8F1000869EB49090020814583
:1026500008BF80451FD1386BE8B9082C4CD197F8DA
:102660003800010748D530203B2586F83B0043E081
:1026700000280ED597F8380000F01400102808D173
:102680007A6B7869121A386A121A511A0029C8BF6F
:102690003962BDE8F3878DF800A0404649462246DE
:1026A000E31700F06DFC3032D0B26D1E3A28019570
:1026B00004DB9DF80000A0F151018A1872554046D4
:1026C00049462246E31700F05BFC8046894600201D
:1026D000814508BF804503D0F86871198842DCD372
:1026E000082C09D197F83800010705D5715D30290C
:1026F00002D06D1E30207055C5F13C01B9617019D2
:10270000F860386B8142B3DA411A39624FF6EF70E4
:10271000398F01403987BDE8F3872DE9D04306465C
:102720000F4614464FF00008DFF8389412E0E00737
:1027300007D542464B463046394600F039FD06463D
:102740000F464046494642464B4600F031FD641074
:1027500080468946002CEAD130463946BDE8D08310
:102760002DE9F34F054641F020048DB0D5E90089ED
:10277000612C02AE09D0286B002848BF062003D484
:1027800008BF672C01D101202863D5E90023580038
:102790004015401C0ED119030CD00320A8619DF8F0
:1027A000380061381A2802D20FF2D06111E00FF21E
:1027B000D0610EE058004015401C0FD119030DD117
:1027C0000320A8619DF8380061381A2814D30FF24D
:1027D000B861E868032200F0BDFDD3E1194621F09D
:1027E0000043B3F5801F10460DD20027BB4208BF3F
:1027F000BA42019703D111E00FF28861E9E701AA1B
:1028000000F0FCFD0AE0DFF8607307EB1352DFF81D
:102810005C3301921940DFF858331943C5E90001D0
:10282000612C0ED1E86830210170811CE9609DF8AF
:10283000381061290CBF7821582141706869801CCB
:102840006861D5E900AB2BF0004300202AF00002BC
:10285000834204BF8242002300F05A81612C40F081
:10286000A980286B00284CBF2120401C00904046C6
:10287000009F7F1C49460022002300F0F7FDD94647
:1028800001988DF8082038BF89F00049001F019099
:10289000002FD0460DF1090040F3498140F2FF714D
:1028A000DFF8D0B20C91064640464946002200238C
:1028B00000F0F4FD80F03A814800400D00F11C0268
:1028C00010D0002A0EDD0C98824205DB09F0004092
:1028D00040EA0B01002013E0A448084040EA0251FE
:1028E00040460DE029F00043002028F0000283421A
:1028F00008BF82420FBF40461C22404600F0E6FD62
:102900008046894600F080FEFF1F002F044609DD47
:1029100000F098FE02460B464046494600F0A4FEF1
:1029200080468946F01D072104E004F00F0200F8FC
:10293000012D2411002C01DD491EF6D5491E5CBF76
:10294000002200F8012DF9D5ECE00020194602AA7A
:102950000A4400E05B1E12F80149491E8442F9D086
:102960000F2804D10DF10900425C521C4254002989
:1029700004D50198001D02AE5B1C0190591E12D4B3
:102980009DF838007218147804F130085FFA88F462
:10299000392CC4BFA0F13A04A044491E02F80189B1
:1029A000F1D58DF83800286B002840F1B080591E11
:1029B0002963ACE0404649460022002300F056FD62
:1029C000019938BF89F0004947F2975041436A4A5C
:1029D00091FBF2F20192D2F1070204DD4046494632
:1029E000FFF79BFE0AE0524200206449FFF795FE84
:1029F00002460B464046494600F0A8FE8046662C3B
:102A0000286BDFF87CB106BF019F0A3706273F1805
:102A1000142FC8BF142730208DF8080089460DF107
:102A2000090000E03046002F34DD064640464946A6
:102A300000F0B0FF01460A4606F1080304200A260A
:102A4000B2FBF6F606EB860EA2EB4E02303203F82E
:102A5000012C0A22B6FBF2F202EB820EA6EB4E0626
:102A60003036401E03F8026DE9D1083F002F03F114
:102A70000806D7DD084600F0A1FF02460B46404697
:102A8000494600F0F1FD00225B4600F091FB8046D4
:102A90008946CBE70DF10901401A0DF1090604E062
:102AA0000199491E401E0191761C31783029F7D0DA
:102AB000662C02D10199491C03E0652C0CBF012151
:102AC00000212B6BCB189842B8BF431E002B1ED49D
:102AD000834204DAF05C3528A8BF392000DA3020C0
:102AE0001946721E02EB010800E05B1E18F80199FE
:102AF000491E8145F9D0392802D1705C401C7054C0
:102B0000002904D50198401C16465B1C01900198D1
:102B100000B200901BB29DF838103246284600F0F3
:102B200035F82FE0C61D002F3FF7BEAE30460DF141
:102B30000901401A009903468842C8BF0B46002B82
:102B40000DF109063FF52FAF8342BFF6FEAE0DF142
:102B50000900C05C07287FF7F8AE0F20F6E60000FA
:102B6000CBCCCC0C0000244002FCFFFFFFFF0F8009
:102B70000000E03F0000F07FA08601000000F03F71
:102B800084D797410FB0BDE8F08F00002DE9FC43DA
:102B9000054683B01F46D5F83080002F164602DC6C
:102BA0005FF00107B9A68946BDF9304049F0200021
:102BB000662808BF641C17D0672840F0888014F18D
:102BC000040FC0F28A80444580F2878095F838006F
:102BD000641C010702D44745B8BFB84620B2B8EB21
:102BE000000848BF4FF000080FFA84F9E868A969A7
:102BF000B9F1000F27DC4A1C30234354B8F1000F11
:102C000003DC95F83800010703D5E8682E218154CC
:102C1000521C18EB090FB8BFC8F1000424B260427F
:102C20006862A044B845AA61B8BF4746E868AB6986
:102C30003FB2EF613A463146184400F08BFBA8EBF7
:102C40000700A862C5E022B29742084419DA3A4662
:102C5000314600F07FFBA8693818A9EB0707B8F1E7
:102C6000000FA8616F6203DC95F838100A0705D5DC
:102C7000E9682E220A54E869401CE861C5F82880FA
:102C8000A7E0314600F066FBA8693F1BB8F1000FD2
:102C9000484403DC95F838100A0703D5E9682E226A
:102CA0000A54401CA86138B28045E868AB69B8BFD7
:102CB00047463AB206EB0901184400F04BFBA869FD
:102CC0003FB23818A8EB0707A8616F6281E0B9F13D
:102CD000610F16D14FF0700918E0474504DA95F8F6
:102CE00038100A0758BFB846B8F1010848BF4FF07E
:102CF0000008B9F1670F14BF4FF045094FF065099F
:102D000004E0B9F1410F08BF4FF05009A969EB6821
:102D1000481CA861B8F1000F16F8012B5A5403DCC7
:102D200095F838100A0719D5EA68431CAB612E21C3
:102D30001154B8F1000F11DD7F1E38B28045E868EC
:102D4000B8BF47463AB23146184400F003FBA869C1
:102D50003FB23818A861A8EB07006862E868A96963
:102D60000844002C80F8009003D42B214170811C72
:102D700003E02D2141706442811C00206A460AE074
:102D800023460A2493FBF4F404EB8406A3EB4603E6
:102D900002F8013B401C24B2002CF1DC012806DCC7
:102DA00049F02002652A04BF302201F8012B48B9FE
:102DB000302001F8010B07E0401E1DF800203032E2
:102DC00001F8012B0028F7DCE868AA691044091A09
:102DD000E96195F8380000F0140010280DD16969F8
:102DE000A8694118686A4118E8694118A86A411839
:102DF000686B8142BCBF411A296205B0BDE8F0830F
:102E0000F8B505460E4617461C46002074B117F863
:102E1000011BB068A847B06030B1F06A401CF06296
:102E20000020641EF3D1F2BD4FF0FF30F2BD000070
:102E30007072696E74665F733A20256E20646973E0
:102E4000616C6C6F776564007072696E74663A20AD
:102E500062616420256E20617267756D656E740015
:102E60007072696E74665F733A20626164202573C4
:102E700020617267756D656E740000006E616E0092
:102E80004E414E00696E6600494E460030000268B1
:102E9000531C0360117070470278C9B28A421AB19C
:102EA0001CBF10F8012FF9E718BF0020704701027E
:102EB00080B500B906A005490B681BB1222200218C
:102EC000984701E000F087FD222002BD901200200B
:102ED000636F6E73747261696E742068616E646C86
:102EE00065723A20626164206D6573736167650085
:102EF00000F10103810704D010F8011B89B181079B
:102F0000FAD10268B2F10131914311F0803F04BF60
:102F100050F8042FF6E710F8011B11B110F8011B4F
:102F2000FBE7C01A70470102C9B2830706D0521EE0
:102F300022D310F8013B9942F7D11FE0083A13D38E
:102F400002F1040241EA012141EA014150F8043B47
:102F5000121F21BF4B40A3F1013C2CEA030C1CF0D3
:102F6000803FF3D0C9B2001F083210F8013B521E57
:102F700028BF91EA030FF8D818BF0120401E704700
:102F8000B3BBD9B1B2F5803F7DD2022A1ED98C469F
:102F9000B1FBF2F102FB11C31B0443EA1043B3FB84
:102FA000F2FC02FB1C3380B240EA0343B3FBF2F0B5
:102FB00002FB103240EA0C4000237047022A05D978
:102FC0008446B0FBF2F002FB10C270474AB105D153
:102FD00000F0010249085FEA300070470022002338
:102FE000704700F0FBBC0B0002000021002070477E
:102FF000904271EB030CF6D3B3F5803F2FD2F0B5BE
:10300000B3FA83F7B1FA81F4A7F10F0E3D1B5340D9
:10301000CEF1200602FA0EF2F3415340B5F10F074C
:1030200046D80F3C2C444140C4F12006A040F14159
:103030004140B1FBF3F603FB1611A2FB0645001B52
:10304000A94102D2761E8018594180EA010221FA74
:103050000EF362FA0EF200215A403046F0BD30B451
:10306000B1FBF3FC03FB1C11A2FB0C45001BA941A7
:1030700003D2ACF1010C8018594130BC02460B461A
:10308000604600217047B2F1807F65D3F0B5B2FA97
:1030900082F7B1FA81F4C7F10F063D1B22FA06F35D
:1030A00007F1110EF24120355A40B5F10F07B8D99A
:1030B0004140C4F12006A040F1414140B1FBF3FC86
:1030C00003FB1C11A2FB0C45001BA94103D2BCF160
:1030D000010C801859410F2F12D30F3FC90341EA49
:1030E0005041B1FBF3F603FB1611A2FB0645D4EBEE
:1030F000C030A94102D2761E8018594146EACC3C24
:1031000007B34140C7F12006B840F1414140B1FB4F
:10311000F3F603FB1611A2FB0645001BA94102D2E0
:10312000761E8018594180EA010221FA0EF3C7F198
:10313000200462FA0EF20CFA07F05A402CFA04F15D
:103140003043F0BD80EA010221FA0EF3002162FA59
:103150000EF260465A40F0BD8C46B1FBF2F102FB24
:1031600011C31B0243EA1063B3FBF2FC02FB1C33E6
:103170001B024CEA002043EA1063B3FBF2FC02FBA3
:103180001C331B024CEA002043EA1063B3FBF2FC41
:1031900002FB1C331B024CEA002043EA1063B3FB22
:1031A000F2FC02FB1C324CEA0020002370470000B6
:1031B000B0B581EA030C0CF0004C40F2FF7515EA43
:1031C00011541DBF15EA1357AC42AF4239E0E41960
:1031D00023EA455343F48013C90241F0004141EA18
:1031E000505EC7021100A7FB020200284FF000004A
:1031F000EEFB01204FF00001E3FB072118BF42F076
:103200000102401800214941E3FB0E01A4F580644E
:103210000F0302D252004041494154F101046CDDD8
:10322000470872F1004250F1000051EB0451A1F542
:1032300080115CBF41EA0C01B0BD4CEA0551002091
:10324000B0BD05EA1357AC4214BFAF4241E050EAAB
:10325000410E1CBF52EA430E02E061460020B0BDA1
:1032600024423C441BD15FEA070EF6D0090302BF9B
:1032700001460020AEF1140EB1FA81F7AEEB07045F
:1032800001FA07FE0C37C7F1200100FA07F7C84022
:103290004EEA000E23EA455343F48013A2E733F0CD
:1032A0000043B3FA83F704BFB2FA82FE77440B3FC0
:1032B000E41BB7F1200E2FBF02FA0EF3BB40C7F19B
:1032C000200E22FA0EFE38BF43EA0E03BA40641CF9
:1032D00082E750EA410E14BF52EA430E6FF000013C
:1032E0004FF4001717EB430F8ABF194617EB410F36
:1032F000B5E74CEA05510020B0BDD4F10104B4F1AA
:1033000020070FDAC4F12007520828BF42F001025B
:1033100010FA07F501FA07F7E1BF2A43E040384306
:10332000E1400FE0352C98DCC7F1200452EA40025E
:1033300020FA07F218BF42F0010231FA07F0A1406B
:103340000A43002172F1004250F1000051EB0C01E0
:10335000B0BD000062B38B0708D0521E11F8013BCC
:1033600000F8013B00F024808B07F6D1830740F082
:10337000208000BF103A07D330B4B1E83810103ABB
:10338000A0E83810F9D230BC530724BFB1E80810C8
:10339000A0E8081044BF51F8043B40F8043BD207B2
:1033A00024BF31F8022B20F8022B44BF0B780370A6
:1033B0007047121F17D35B0009D151F8043B20F866
:1033C000023B1B0C121F20F8023BF6D20BE051F817
:1033D000043B00F8013B1B0A20F8023B1B0C121FA8
:1033E00000F8013BF3D238BF121D521E24BF11F862
:1033F000013B00F8013BF8D87047000010B51446B7
:1034000000F002F8226010BDC1F30A5343B14A0034
:1034100012F5001F28D2A3F2FE32A1EB0251704731
:1034200050EA410C20D001F0004C31EA0C01B1FA15
:1034300081F204BFB0FA80F3D2180B3AB2F1200344
:103440002CBF00FA03F1914041EA0C013EBFC2F1EA
:10345000200C20FA0CF319439040524240F2FD3305
:10346000D21A01EB03517047002270474FF4001C41
:103470001CEB410F94BF1CEB430F09E041EA030C26
:1034800050EA4C0C52EA0C0C03D2994208BF90420D
:10349000704714BF8B428242704700004FF4001CFB
:1034A0001CEB410F94BF1CEB430F09E041EA030CF6
:1034B00050EA4C0C52EA0C0C03D28B4208BF8242F9
:1034C000704714BF9942904270470000124254D492
:1034D00040F2FF7C1CEA11530FD0634531D09B189A
:1034E00063453CBF01EB0251704701F0004141EAE6
:1034F0000C510020AFF30080704750EA410320D008
:1035000001F0004C91EA0C011CD0B1FA81F30B3BA5
:103510009A420DD9D21A994051EA0C01C3F1200CFC
:1035200020FA0CFC61449840531C40F2FF7CD7E722
:10353000914041EA0C01C2F1200C20FA0CF319432E
:1035400090407047B0FA80F31533202BE0D3202A47
:10355000EED3203A203B9A4209D9D21A00FA03F15D
:1035600041EA0C010020531C40F2FF7CB8E700FA4E
:1035700002F141EA0C0100207047524240F2FF7C08
:103580001CEA11530DD06345DBD0B2EB030C3CBFFA
:10359000A1EB025170470CF1010221EA035141F401
:1035A000801150EA410CCCD001F0004C352A27DCC8
:1035B00030B481EA0C01B2F1200309DAC2F1200330
:1035C000044601FA03F5D0402843D1409C400CE06A
:1035D000C3F12002450020FA03F418BF44F00104AF
:1035E00021FA03F091400C43002174F1004550F1A1
:1035F000000051EB0C01244230BC7FF47BAF7047DC
:103600006146002076E70000C1F30A5340F2FE3223
:103610009B1A14DDD3F120034FEAE17208DDC902E1
:1036200041EA505141F00040D84080185040704766
:1036300003F2E13010B1D24382F000407047002025
:1036400070470000C11768B14840401AB0FA80F2D4
:103650009040D21CC907C2F5846241EA025202EBD3
:10366000D02140057047000070B44FF0004591EA4A
:10367000030F40F1B5816B40841A71EB030603D24E
:10368000001BB141121973414FF4001C1CEB410F98
:1036900034BF7CEB430442E00C0DA4EB1356352EF3
:1036A0004FDC45EAC323DB0A45EAC121C912B6F162
:1036B00020050DDD63FA05F6EB4086EA03051242AC
:1036C00018BF45F00105C01851F100010CD213E0FC
:1036D00062FA06F5F2405540F3415A40B340F340D8
:1036E0005A408018594107D349085FEA30005FEA21
:1036F000350528BF45F0010501F58011420875F137
:10370000004250F1000041EB04514E0016F5001F3D
:1037100070BC38BF70470020090D090570471CEBCD
:10372000410F10D252EA43060BD0BCEB410F05D833
:103730000C0DAB43661E342EB6DD02E0AB438018A1
:10374000594170BC704770BC70470000F0B540F242
:10375000FF7581EA030C0CF0004C15EA11541DBFF3
:1037600015EA1357AC42AF42E5E0BC41C1F3130187
:10377000C3F31303801A994143F4801304D2641EE7
:103780004000494180185941C90241EA5051B1FBFA
:10379000F3F603FB1611A2FB0675D7EBC020A94177
:1037A00002D2761E80185941C90241EA5051B1FB3C
:1037B000F3FE03FB1E11A2FB0E75D7EBC020A9413F
:1037C00003D2AEF1010E80185941890241EA9051AD
:1037D000760546EA8E2EB1FBF3F603FB1611A2FB2B
:1037E0000675D7EB8020A94102D2761E8018594178
:1037F000C90241EA50514EEA060EB1FBF3F603FB53
:103800001611A2FB0675D7EBC020A94102D2761E85
:1038100080185941C90241EA5051B1FBF3F703FB4B
:103820001711A2FB0735D3EBC020A94167F10007B0
:103830000CBF004247F0010766F3D5274FEA1E315F
:10384000B80814F5806412DDBD0775F1004250EB35
:103850000E5051EB045111F5801F5CBF41EA0C0181
:10386000F0BD4CF07F6141F0E0410020F0BDBD07AC
:103870006D0840EA0E5041F48011D4F10104B4F116
:1038800020060ADAC4F120060200E04001FA06F33D
:10389000E1401843B24015430EE0342C13DCC6F16E
:1038A000200445EA40056D0820FA06F2154321FA86
:1038B00006F0A1400D43002175F1004250F10000D7
:1038C00051EB0C01F0BD00205FEA0C01F0BDCFB957
:1038D00092185B41B3FA83F704BFB2FA82F6BF19BC
:1038E0000B3FB7F120062FBF02FA06F3BB40C7F12A
:1038F000200622FA06F638BF3343BA401CB1E41959
:10390000641E33E77F4231F00041B1FA81F404BF15
:10391000B0FA80F6A4190B3CB4F120062FBF00FAD0
:1039200006F1A140C4F1200620FA06F638BF314363
:10393000A0403C1B1AE7AC421ABF05EA1357AF423E
:1039400012E050EA41061CBF52EA4306BFE750EAC4
:103950004107304661461CBF41EA0551F0BD52EABD
:10396000430C08BFC143F0BD00204FF4001616EB16
:10397000410F98BF16EB430F08BF16EB410F24BF52
:10398000C14305E016EB430F0CBF61464CEA0551FD
:10399000F0BD0000400D491840EA81200CD2490DCD
:1039A000A1F58061491C40F0004005DBD1F11F0109
:1039B00054BFC840C017704700207047014648B147
:1039C000B0FA80F18840C91CC1F58461090501EB9A
:1039D000D02140057047012000F0B6B870470000C4
:1039E000841A71EB030604D26E40001BB141121918
:1039F00073414FF4001C1CEB410F34BF7CEB4306BA
:103A000082E00C0DA4EB1356362E7BDC012E45EA2A
:103A1000C32341DC43EA525312BFD20292025B0835
:103A2000240545EAC12141EA5051D2EBC020994119
:103A300025D407D1B0FA80F610FA06F162D0002042
:103A4000203608E0B1FA81F6B140C6F1200220FA32
:103A500002F21143B0404FEAF474B4EB465434F030
:103A600001064FEA74040AD8D6F50016760D04F064
:103A70000044F04061FA06F25040F1404840C00A6C
:103A800040EA415021F0004128BF5FEA500550F163
:103A9000000044EBD12135E0DB0A45EAC121C90A27
:103AA000B6F120050EDD42EA0242120CC5F12006F5
:103AB00003FA06F6EB4042EA06056D42984161F1D1
:103AC00000010DE062FA06F5F240554063FA06FC8B
:103AD00082EA0C02F3405A406D42904161EB0301CF
:103AE00011F4801F05D1641E620502D06D004041B3
:103AF000494121F48011430875F1004350F1000061
:103B000041EB045170BC70471CEB410F15D223F000
:103B1000004352EA43060BD04FEA4C0CBCEB410F7A
:103B200004D80C0D661E342EB7DDEBE7801A9941E0
:103B300050EA410608BF0021E4E708BF1CEB430F31
:103B400028BF6FF00001DDE780B5AFF30080024AC7
:103B500011001820ABBEFBE7260002002DE9F84F4C
:103B600084B006000F0090469946DDF838A0DDF8D5
:103B70003CB0404680B2800000F06CFC0500002D97
:103B80000BD0542000F066FC0400002C01D025630B
:103B900004E0280000F0EBFC00E00024002C12D030
:103BA000002003900294CDF804B0CDF800A04B465D
:103BB000424692B23900300000F00AF8200000F0CE
:103BC0006AF8012001E05FF0FF3005B0BDE8F08F3A
:103BD0002DE9F84F05000E0017009846DDF82890F3
:103BE0000B9CDDF830A0DAF8300000EB8700001FF6
:103BF000C008C0000090009810F0070F07D05020B8
:103C000080F31188BFF34F8FBFF36F8FFEE75FF034
:103C1000000BBBF1100F0CD216F80B000AEB0B01D6
:103C200081F8340016F80B00002802D01BF1010BBC
:103C3000EFE700208AF84300B9F1070F01D306200F
:103C40008146CAF82C90CAF844900020CAF848006F
:103C50001AF1040000F049FD1AF1180000F045FDCA
:103C6000CAF810A0D9F10700CAF81800CAF824A0B1
:103C70000020CAF84C0000208AF850004246290073
:103C8000009800F071FDCAF80000002C01D0C4F8C3
:103C900000A0BDE8F18F10B5040000F0CDFDDFF805
:103CA000EC040068401CDFF8E4140860DFF8E0046E
:103CB000006800280AD1DFF8D8040460DFF8CC04DB
:103CC0000068012811D100F0C4FA0EE0DFF8C40446
:103CD0000068002809D1E06ADFF8B4140968C96AED
:103CE000884202D3DFF8A8040460DFF8AC0400685F
:103CF000401CDFF8A4140860DFF8A004016801226A
:103D0000E06A82401143DFF894040160211DDFF86E
:103D10009024E36A1420434302EB030000F0E8FC24
:103D200000F0A7FDDFF86C04006800280FD0DFF872
:103D300060040068C06AE16A884208D25FF080507F
:103D4000DFF864140860BFF34F8FBFF36F8F10BDAF
:103D50002DE9F04104000D000026002C07D1502071
:103D600080F31188BFF34F8FBFF36F8FFEE7002DF5
:103D700007D1502080F31188BFF34F8FBFF36F8FAF
:103D8000FEE7DFF820040068002807D0502080F309
:103D90001188BFF34F8FBFF36F8FFEE700F063F81A
:103DA000DFF80804D0F800802768EF192068804504
:103DB00007D2206887420BD2B84509D201200600FD
:103DC00006E02068874201D3B84501D201200600F1
:103DD0002760002E04D00021B7EB080000F0DCFAC9
:103DE00000F06DF8002808D15FF08051DFF8B823AB
:103DF0001160BFF34F8FBFF36F8FBDE8F0811CB52B
:103E0000DFF8700501900020009000238022DFF889
:103E100068150FF29D30FFF7A1FE0400012C16D1AA
:103E2000502080F31188BFF34F8FBFF36F8F5FF087
:103E3000FF30DFF84C1508600120DFF858130860E8
:103E40000020DFF86813086000F0B3FC0AE014F10A
:103E5000010F07D1502080F31188BFF34F8FBFF3BC
:103E60006F8FFEE713BDDFF83C030068401CDFF8EE
:103E700034130860704700210120DFF82023126806
:103E8000904201D201221100DFF804030068C06AE9
:103E9000002801D0002011E0DFF8040300680228A8
:103EA00001D300200AE0002901D0002006E0DFF85D
:103EB000D0040268DFF8F4020068101A704770B589
:103EC00000250026DFF8DC020068002807D150201A
:103ED00080F31188BFF34F8FBFF36F8FFEE700F0C1
:103EE000ABFCDFF8C0020068401EDFF8B8120860C3
:103EF000DFF8B0020068002859D1DFF890020068AE
:103F0000002854D0DFF874040068002827D0DFF8B8
:103F10006C04C068C068050015F1180000F00FFCC3
:103F2000281D00F00CFC9D4801680122E86A8240CF
:103F300011439A480160291D994AEB6A14204343B2
:103F400002EB030000F0D4FBE86A91490968C96AF2
:103F50008842D7D30120DFF830140860D2E7002D63
:103F600001D000F0DDF9DFF81C040468002C0ED04D
:103F700000F03EF8002803D00120DFF80C140860A0
:103F8000641E002CF4D10020DFF8F8130860DFF87D
:103F9000F803006800280AD0012006005FF0805076
:103FA000DFF804120860BFF34F8FBFF36F8F00F08C
:103FB00060FC300070BDDFF8F40100687047DFF886
:103FC000C0130968DFF8E42112688218914207D211
:103FD000502181F31188BFF34F8FBFF36F8FFEE73E
:103FE000DFF8C81109684118DFF8C0211160704777
:103FF0002DE9F0410027DFF8AC01006800287CD1F2
:10400000DFF8A8010468641CDFF8A0010460002C3C
:1040100024D1DFF8780300680068002807D050201A
:1040200080F31188BFF34F8FBFF36F8FFEE7DFF888
:104030005C03D0F80080DFF858030068DFF84C1309
:104040000860DFF84C03C0F80080DFF84803006820
:10405000401CDFF84013086000F062F9DFF820032D
:10406000006884423DD3DFF824030068006800281C
:1040700005D15FF0FF30DFF80813086031E0DFF8AA
:104080000C030068C068C068050068680600B44298
:1040900003D2DFF8EC02066023E0281D00F04FFB9E
:1040A000A86A002803D015F1180000F048FB3B482F
:1040B00001680122E86A8240114338480160291DE5
:1040C000374AEB6A1420434302EB030000F010FB75
:1040D000E86A2F490968C96A8842C4D301200700E9
:1040E000C1E72F492A480068C26A14204243885811
:1040F000022809D30120070006E0DFF888020068E3
:10410000401CDFF880120860DFF87C02006800289D
:1041100001D0012007003800BDE8F0812148006887
:10412000002804D00120DFF8601208602CE0002095
:10413000DFF85412086019480068B0FA80F1D1F134
:104140001F011748142202FB01F28058002807D1F2
:10415000502080F31188BFF34F8FBFF36F8FFEE7BE
:104160000F48142202FB01F2104442685268426078
:10417000426810F108039A4202D1426852684260D4
:104180004068C068024A1060704700006412002056
:104190005412002070120020801200206C120020A7
:1041A000141000208C12002004ED00E068120020A2
:1041B00070B5040000F079F8DFF8640200680228A6
:1041C00007D35FF080506A490860BFF34F8FBFF399
:1041D0006F8FFFF750FE0500022DEBD3FFF743FE74
:1041E000DFF89C010068DFF83C120968884207D2BA
:1041F000502080F31188BFF34F8FBFF36F8FFEE71E
:10420000FFF739FE0600022E02D3300000F06AFBF1
:10421000FFF755FECEE701220120DFF860110968A3
:10422000002902D00021080011E0DFF85C110968C4
:10423000002902D00021080009E04C490968DFF894
:10424000E8311B689B1A994201D102210800C0B2D3
:10425000704710B50024072C09D2DFF8C4011421DF
:1042600001FB04F1084400F031FA641CF3E7DFF8C5
:10427000BC0100F02BFADFF8B80100F027FADFF8F4
:10428000FC0000F023FADFF8AC0100F01FFA374819
:1042900000F01CFADFF89401DFF8F0100860DFF896
:1042A0009001DFF89411086010BD38B5DFF88C017B
:1042B000006800282AD0FFF7D6FDDFF878010068F3
:1042C000002801D1012400E00024FFF7F8FD002CB4
:1042D000ECD100F0B1FADFF85C01C068C568281DB8
:1042E00000F02DFADFF840010068401EDFF83811B9
:1042F0000860DFF848010068401EDFF840110860E0
:1043000000F0B7FA280000F002F8CFE731BD10B591
:104310000400206B00F02BF9200000F028F910BDFC
:10432000DFF8680000680068002804D15FF0FF3003
:10433000134A106008E0DFF854000068C068C068E5
:10434000010048680E4A10607047DFF8F40000680A
:10435000002801D1012007E0DFF8E800006800280C
:1043600001D1022000E00020704700000012002070
:1043700004ED00E088120020BC860008D81100205F
:10438000841200207412002078120020581200209D
:104390005C1200207C120020F8B505000C002148BA
:1043A00007681D480068001D00F0C9F9002809D100
:1043B00019480068194909680122C06A824091437E
:1043C0001648016015F1010F08D1002C06D01248E3
:1043D0000068011D1C4800F08BF91BE0E81906007D
:1043E0000D4800684660BE4207D20B480068011DB8
:1043F0001148006800F088F90CE007480068011DCA
:104400001248006800F080F911480068864201D225
:104410000F480660F1BD0000541200206C1200200D
:10442000141000206812002064120020B011002037
:10443000C4110020EC1100205C120020601200204A
:10444000701200208C120020001200205812002050
:10445000841200202DE9F04104005FF00008FFF70E
:1044600002FD93480068002801D100F0BDF8914892
:10447000006804426AD1002C15D08F4800680419E6
:1044800014F0070F0FD014F1080014F00704041BF8
:1044900014F0070F07D0502080F31188BFF34F8F1F
:1044A000BFF36F8FFEE7002C50D084480068A04215
:1044B0004CD3834806008248006805006868A04223
:1044C00005D22868002802D02E002D68F6E778482B
:1044D000006885423AD030687749096808448046C8
:1044E000286830607448006840006968091B884289
:1044F00015D205EB0400070017F00700002807D0CD
:10450000502080F31188BFF34F8FBFF36F8FFEE70A
:104510006868001B78606C60380000F098F86748A5
:1045200001686868091A654801606448006865495F
:104530000968884203D26148006862490860696876
:104540005C4800680143696000202860FFF7B7FC01
:1045500018F00700002807D0502080F31188BFF31F
:104560004F8FBFF36F8FFEE74046BDE8F08170B517
:1045700004002600002C36D04F4800684042064414
:10458000350068684B490968084207D1502080F31C
:104590001188BFF34F8FBFF36F8FFEE728680028A5
:1045A00007D0502080F31188BFF34F8FBFF36F8F78
:1045B000FEE768683F490968084214D02868002867
:1045C00011D169683B48006881436960FFF74BFC83
:1045D0003A4801686868411838480160280000F0CE
:1045E00036F8FFF76CFC70BD10B44FF44061364AEA
:1045F00012F0070F05D0D21DD208D200891A324816
:1046000041182F48026000202D4B58608B182A4813
:1046100000681B1ADB08DB00254803600020244CDF
:10462000246860600020224C24682060981A506042
:104630001F48006810605068224C206050681F4C72
:1046400020605FF000401B4C206010BC704730B40D
:104650001B4A1168814201D21268FAE714005168BE
:104660002144814204D153684168CB185360100043
:104670000300416819441568A94211D111680C4C16
:104680002468A14208D04468116849680C19446044
:1046900011680968016005E005490968016001E0E9
:1046A00011680160824200D0106030BC7047000089
:1046B0002412002030120020C88600082812002092
:1046C000141200202C1200201400002010F1080108
:1046D00041605FF0FF31816010F10801C16010F1AD
:1046E00008010161002101607047002101617047EC
:1046F00042684A6093688B60936859609160086172
:1047000003685B1C0360704710B40B6813F1010F62
:1047100001D1026907E010F1080254682468A3423D
:1047200001D35268F9E754684C604C68A1608A6014
:10473000516008610468641C046010BC704701008B
:1047400008698A684B689A604A688B685A60426850
:104750008A4201D18A68426000220A610268521EC0
:104760000260006870470000001F5FF08073036004
:10477000001F4B085B000360001F0FF20D03036076
:1047800014380260203870475048006810F1010F5B
:1047900007D0502080F31188BFF34F8FBFF36F8F86
:1047A000FEE7502080F31188BFF34F8FBFF36F8F68
:1047B000FEE7E0B5464801780191FF2101700178DC
:1047C0008DF800109DF8001011F05001414A117051
:1047D0000721414A11609DF8001009060AD53E499B
:1047E0000968491E3C4A11609DF8001049008DF887
:1047F0000010F0E7384909680902374A1160364964
:10480000096811F4E061344A11600199017033487C
:10481000006850F47000314908603048006850F07A
:1048200070402E49086000F00BF90020274908600D
:1048300000F06DF900200EBD502080F31188BFF309
:104840004F8FBFF36F8F21480068401C1F490860DD
:104850001E48006801280BD121480068000607D0D7
:10486000502080F31188BFF34F8FBFF36F8FFEE7A7
:10487000704716480068002807D1502080F311883F
:10488000BFF34F8FBFF36F8FFEE710480068401EE5
:104890000E4908600D480068002802D1002080F30E
:1048A0001188704780B5502080F31188BFF34F8F77
:1048B000BFF36F8FFFF79CFB002803D05FF08050A1
:1048C00007490860002080F3118801BD080000201E
:1048D00000E400E0951200204C12002020ED00E0E2
:1048E00004ED00E0F1B582B04F48006802998842BB
:1048F00002D24D48006802904C48006840084000D1
:104900004A4908604A4800684A490F680299491EA6
:1049100001FB070748480068B84202D246480068D1
:104920003F1A72B6BFF34F8FBFF36F8FFFF773FC61
:10493000002810D13E480068404908603B480068A4
:1049400050F00100394908603A480068401E3B4970
:10495000086062B666E039480760002034490860A4
:104960003248006850F00100304908600298009019
:10497000684600F0DDF80098002804D0BFF34F8FA0
:1049800030BFBFF36F8F02A800F0D3F8274800684C
:104990000600700840002549086062B6F00318D58B
:1049A00024480168491EC91B214800684118224853
:1049B0000068814203D31F480068884203D21D4823
:1049C0000068401E01001D4801600298401E04005E
:1049D00013E0029917480068414315480068091A16
:1049E0000D0014480068B5FBF0F00400611C11488C
:1049F00000684143491B1148016000200C490860D0
:104A0000FFF71AFF0948006850F0010007490860E5
:104A10002000FFF7D4FA07480068401E07490860E5
:104A2000FFF727FFF7BD00BF4412002010E000E0B1
:104A300018E000E0401200204812002014E000E0DE
:104A4000134800684FF47A71B0FBF1F01149086027
:104A50007FF07F400F490968B0FBF1F00E49086014
:104A60000B4800680A490968B0FBF1F02D21B1FB41
:104A7000F0F00A490860064800684FF47A71B0FB0C
:104A8000F1F0401E0649086007200649086070479B
:104A90000C00002040120020441200204812002088
:104AA00014E000E010E000E0EFF30980BFF36F8F47
:104AB0001D4B1A6820E9F00F106008B54FF0500048
:104AC00080F31188BFF34F8FBFF36F8FFFF726FB83
:104AD0004FF0000080F31188BDE8084019680868AD
:104AE000B0E8F00F80F30988BFF36F8F70470E4B6B
:104AF00019680868B0E8F00F80F30988BFF36F8F7A
:104B00004FF0000080F311884EF00D0E70470748FB
:104B10000068006880F3088862B661B6BFF34F8F03
:104B2000BFF36F8F00DF00005412002008ED00E09B
:104B30007047704770B5040000250026002C01D195
:104B40000120B9E094F83D00002805D1002084F848
:104B50003C00200000F019FC242084F83D0020686F
:104B60000068400840002168086000F09AFF0100DA
:104B70006068DFF8D022904208D2DFF8CC02814290
:104B800001D2012000E00020C0B207E0DFF8BC0243
:104B9000814201D2012000E00020C0B2012801D1F1
:104BA000012089E0DFF8A802B1FBF0F22068426042
:104BB0006068DFF89032984201D2501C08E04FF450
:104BC000967000FB02F04FF47A73B0FBF3F0401CD8
:104BD000236818626068DFF86C32984214D2481E6D
:104BE00063685B00B0FBF3F0401C0005000D042877
:104BF00001D204203EE0481E63685B00B0FBF3F086
:104C0000401C0005000D35E0A068002809D14B1EAE
:104C1000656803204543B3FBF5F0401C0005000D1B
:104C20000AE04B1E656819204543B3FBF5F0401CB4
:104C30000005000D50F48040000501D1012019E06D
:104C4000A068002809D14B1E656803204543B3FBCB
:104C5000F5F0401C0005000D0AE04B1E65681920A8
:104C60004543B3FBF5F0401C0005000D50F48040B7
:104C700050F400402368D861E369206A0343206848
:104C800003602369E0680343206883606369A06967
:104C900003432068C3602068006850F00100236867
:104CA000186000202064202084F83D00002020634C
:104CB000002084F83E00002070BD2DE9FC47040070
:104CC0000D0016001F00DDF828805FF0000A00F0DC
:104CD00051FF814694F83D00202840F0AF80CDF888
:104CE000009019230122DFF86C11200000F00AFA6D
:104CF000002801D00220A2E094F83C00012801D154
:104D000002209CE0012084F83C0020680068C00775
:104D100005D42068006850F0010021680860206810
:104D2000006830F4006021680860212084F83D00AC
:104D3000102084F83E000020206466626785DFF85A
:104D40001801E062608D20854B464246290089B2F9
:104D5000200000F069F900280CD0206C042804D150
:104D6000002084F83C00012069E0002084F83C0029
:104D7000032064E0002000902068406900902068D3
:104D8000806900900098208D002846D04A46414610
:104D9000200000F04EFA00280CD0206C042807D127
:104DA0002068006850F4007021680860012046E027
:104DB000032044E0606A411C616200782168086158
:104DC000608D401E6085208D401E208520684069D2
:104DD00040070ED5208D00280BD0606A411C61620F
:104DE000007821680861608D401E6085208D401E1E
:104DF00020854A464146200000F044FA0028C2D0EF
:104E0000206C042807D12068006850F400702168E5
:104E10000860012013E0032011E02068006850F4CE
:104E2000007021680860202084F83D00002084F88C
:104E30003E00002084F83C00002000E00220BDE895
:104E4000F6870000A186010080841E0000093D0055
:104E500040420F00020010000000FFFF2DE9F34F59
:104E600081B0050016001C000020009000275FF0B4
:104E700000085FF000095FF0010A00F07BFE834646
:104E800095F83D00202840F0C880CDF800B01923E7
:104E900001226349280000F035F9002801D00220E2
:104EA000BCE095F83C00012801D10220B6E00120C9
:104EB00085F83C0028680068C00705D428680068A9
:104EC00050F00100296808602868006830F400602C
:104ED00029680860242085F83D0000202864DFF858
:104EE0004401E8622868006850F48070296808600E
:104EF000CDF800B0230000225FF00111280000F07F
:104F000001F9002801D0032088E0BDF8080010F066
:104F1000FE002968086100F02DFE8346286840697C
:104F2000400810F00100070028684069800A10F06E
:104F30000100804695F83D00814658EA07000028A8
:104F40001DD1B9F1A00F1AD0002C05D000F012FE2F
:104F5000B0EB0B00844202D2A02085F83D00286807
:104F60004069400810F00100070028684069800A85
:104F700010F00100804695F83D008146DDE72020D5
:104F800085F83D0028684069800722D528680068B8
:104F900050F400702968086000200090286840697B
:104FA00000902868806900900098CDF800B019231F
:104FB00001221B49280000F0A5F8002801D0032099
:104FC0002CE0202085F83D00002085F83C000020E2
:104FD00024E02868006850F40070296808607FF4B5
:104FE000806029684861CDF800B0192301220C497E
:104FF000280000F087F8002801D003200EE050467A
:1050000010F1010AB042FFF46DAF202085F83D0099
:10501000002085F83C00012000E00220BDE8FE8F62
:10502000020010000000FFFF2DE9FC4104000D000C
:1050300016001F00D4F82C80B8F1040F06D0B8F188
:10504000010F03D0DFF8B000804506D1206800686A
:1050500050F480702168086008E0206B122805D1A8
:105060002068006850F48070216808600097330061
:1050700000225FF00111200000F044F8002801D068
:10508000032036E02069B0F5804F04D115F0FE0012
:10509000216808611CE015F4407080B2C00950F02E
:1050A000F000C0B2216808613B003200DFF84C100C
:1050B000200000F06DF8002806D0206C042801D1F3
:1050C000012016E0032014E02800C0B22168086126
:1050D0003B003200DFF82810200000F059F80028CB
:1050E00006D0206C042801D1012002E0032000E05A
:1050F0000020BDE8F68100000000FFFF080001006D
:10510000020001002DE9F04105000E0017001C000F
:10511000DDF818803000000CC0B201280AD12868E0
:105120004069304080B2B1B2884201D101200BE029
:10513000002009E028688069304080B2B1B288421E
:1051400001D1012000E00020002801D0012000E072
:1051500000203900C9B2884217D114F1010FD9D00B
:10516000002C05D000F006FDB0EB08008442D1D23F
:1051700000202863202085F83D00002085F83E00AF
:10518000002085F83C00032000E00020BDE8F0810D
:10519000F8B505000E0014001F003000000CC0B26E
:1051A00001280AD128684069304080B2B1B28842F3
:1051B00001D101200BE0002009E02868806930401F
:1051C00080B2B1B2884201D1012000E00020002865
:1051D0002DD128684069400515D52868006850F42D
:1051E0000070296808607FF48060296848610420A5
:1051F000286400202863202085F83D00002085F8E1
:105200003C00012014E014F1010FC6D0002C04D0A2
:1052100000F0B0FCC01B8442BFD2002028632020D5
:1052200085F83D00002085F83C00032000E00020C8
:10523000F2BD70B505000C00160028684069000634
:105240001ED4280000F047F8002801D0012018E003
:1052500014F1010FF1D0002C04D000F08BFC801B66
:105260008442EAD2286C50F0200028640020286391
:10527000202085F83D00002085F83C00032000E058
:10528000002070BD70B505000C001600286840694C
:1052900040071ED4280000F01EF8002801D001208D
:1052A00018E014F1010FF1D0002C04D000F062FCE2
:1052B000801B8442EAD2286C50F020002864002031
:1052C0002863202085F83D00002085F83C0003205D
:1052D00000E0002070BD01000868406940050FD55E
:1052E0007FF480600A68506104200864002008632D
:1052F000202081F83D00002081F83C00012000E0E2
:105300000020704780B54A48006850F001004849C5
:1053100008604748006810F00100009000980320E2
:1053200000F09BFC002200217FF00B0000F09BFCB2
:10533000002200217FF00A0000F095FC00220021ED
:105340007FF0090000F08FFC002200217FF00400B4
:1053500000F089FC002200217FF0030000F083FCB4
:1053600000220F217FF0010000F07DFC00220F21C0
:105370005FF0FF3000F077FC2E48006830F0E0600E
:1053800050F000702B49086001BD18B585B00400CD
:1053900020682949884216D14FF4406001901220BC
:1053A00002900320049001A9244800F09FFC2448A7
:1053B000006850F48000224908602148006810F419
:1053C00080000090009806B010BD1CB50400206855
:1053D0001C49884210D100F0DFFD1948006850F0E8
:1053E0000060174908601648006810F000600090DF
:1053F000009801201449086013BD1CB50400206802
:10540000B0F1804F13D10E48006850F001000C49F4
:1054100008600B48006810F001000090009800221E
:1054200005211C2000F01FFC1C2000F031FC13BDE6
:10543000181002400400014000580040000C0140D8
:105440001C100240002800403C0442427CB504008D
:1054500000252078C00740F18480DFF8D806006876
:1054600010F00C0004280BD0DFF8C806006810F01C
:105470000C0008280ED1DFF8BC060068C00309D56F
:10548000DFF8AC06006880036BD56068002868D13F
:10549000012005E26068B0F5803F08D1DFF8900692
:1054A000006850F48030DFF88816086038E06068E3
:1054B000002810D1DFF87806006830F48030DFF87B
:1054C00070160860DFF86806006830F48020DFF8A6
:1054D0006016086024E06068B0F5A02F10D1DFF8F6
:1054E0005006006850F48020DFF844160860DFF8AA
:1054F0004006006850F48030DFF8341608600FE092
:10550000DFF82C06006830F48030DFF824160860DD
:10551000DFF81C06006830F48020DFF814160860FD
:10552000606800280ED000F025FB0500DFF80006BB
:105530000068800315D400F01DFB401B6528F5D3DF
:105540000320ADE100F016FB0500DFF8E40500687C
:10555000800306D500F00EFB401B6528F5D3032021
:105560009EE1207880075CD5DFF8C805006810F060
:105570000C0F0BD0DFF8BC05006810F00C000828F9
:105580001AD1DFF8B0050068C00315D4DFF8A00514
:105590000068800704D52069012801D001207FE13F
:1055A000DFF88C05006830F0F800616950EAC1004E
:1055B000DFF87C15086034E0206900281ED0012047
:1055C000DFF88015086000F0D5FA0500DFF8600507
:1055D0000068800706D400F0CDFA401B0328F5D3FD
:1055E00003205DE1DFF84805006830F0F8006169EC
:1055F00050EAC100DFF83815086012E00020DFF83B
:105600004415086000F0B6FA0500DFF824050068CC
:10561000800706D500F0AEFA401B0328F5D303201F
:105620003EE1207800072CD5A069002816D0012083
:10563000DFF81415086000F09DFA0500DFF800059A
:105640000068800706D400F095FA401B0328F5D3C4
:10565000032025E1012000F057FA12E00020DFF8D6
:10566000E814086000F086FA0500DFF8D40400684A
:10567000800706D500F07EFA401B0328F5D30320EF
:105680000EE12078400740F1A8800026DFF8BC0436
:105690000068C00010D4DFF8B404006850F08050F7
:1056A000DFF8A8140860DFF8A404006810F0805048
:1056B0000090009801200600DFF894040068C005FF
:1056C00016D4DFF88C04006850F48070DFF8801482
:1056D000086000F04FFA0500DFF874040068C005A8
:1056E00006D400F047FA401B6528F5D30320D7E025
:1056F000E068012808D1DFF85C04006850F0010080
:10570000DFF85014086037E0E068002810D1DFF8B7
:105710004404006840084000DFF838140860DFF8EF
:105720003404006830F00400DFF82814086023E037
:10573000E068052810D1DFF81C04006850F0040070
:10574000DFF810140860DFF80C04006850F0010066
:10575000DFF8001408600FE0DFF8F8030068400885
:105760004000DFF8F0130860DFF8E803006830F06D
:105770000400DFF8E0130860E068002810D000F0B3
:10578000F9F90500DFF8CC030068800719D400F0B0
:10579000F1F9401B41F289318842F3D303207FE0C5
:1057A00000F0E8F90500DFF8AC030068800708D5D1
:1057B00000F0E0F9401B41F289318842F3D3032025
:1057C0006EE03000C0B2012807D1DFF88003006826
:1057D00030F08050DFF874130860E06900285ED074
:1057E000DFF85003006810F00C00082855D0E0697D
:1057F00002283FD10020DFF86013086000F0BAF9FA
:105800000600DFF82C030068800106D500F0B2F92D
:10581000801B0328F5D3032042E0206AB0F5803FC7
:1058200009D1DFF81003016831F40031A0680143A9
:10583000DFF800030160DFF8FC02016831F4741145
:10584000206A0143606A0143DFF8E8020160012039
:10585000DFF80413086000F08DF90500DFF8D002CE
:10586000006880011BD400F085F9401B0328F5D3A4
:10587000032015E00020DFF8E012086000F07AF95C
:105880000500DFF8AC020068800108D500F072F96D
:10589000401B0328F5D3032002E0012000E0002094
:1058A00076BD70B504000D000026DFF8B002006878
:1058B00010F00700A84211D2DFF8A0020068C0086B
:1058C000C0002843DFF894120860DFF890020068F7
:1058D00010F00700A84201D00120A5E02078800741
:1058E00009D5DFF85002016831F0F001A0680143EA
:1058F000DFF8400201602078C0075AD560680128AF
:1059000006D1DFF82C020068800312D401208BE05E
:105910006068022806D1DFF818020068800108D408
:10592000012081E0DFF808020068800701D401202F
:105930007AE0DFF8000201688908890060680143A5
:10594000DFF8F001016000F015F906006068012839
:105950000FD1DFF8E001006810F00C00042828D017
:1059600000F008F9801B41F289318842F1D303200D
:105970005AE0606802280ED16E48006810F00C00F2
:10598000082816D000F0F6F8801B41F289318842D1
:10599000F2D3032048E06748006810F00C0F08D0ED
:1059A00000F0E8F8801B41F289318842F3D30320EC
:1059B0003AE06A48006810F0070085420ED2674856
:1059C0000068C008C0002843644908606348006854
:1059D00010F00700A84201D0012025E02078400700
:1059E00007D55448016831F4E061E068014351484B
:1059F00001602078000708D54E48006830F46050F8
:105A0000216950EAC1004B49086000F00EF8544982
:105A1000484A1268C2F30312895CC84047490860CB
:105A2000002000F0BFFA002070BD78B585B001A855
:105A30004C491022FDF79EFC4B480088ADF8000051
:105A4000002000210022002300243A4D2D6815F08B
:105A50000C06042E02D0082E02D01CE036481BE0B3
:105A600001A8C5F38346805D0300E8030DD56846B1
:105A7000304E3668C6F34046805D01002E4800FB7C
:105A800003F0B0FBF1F0020003E0384800FB03F044
:105A90000200100000E0284806B070BD27480068EA
:105AA000704780B5FFF7FAFF3149224A1268C2F306
:105AB0000222895CC84002BD80B5FFF7EFFF2C4988
:105AC0001C4A1268C2F3C222895CC84002BD0F2280
:105AD0000260184A126812F003024260154A126806
:105AE00012F0F0028260134A126812F4E062C2609F
:105AF000104A1268D20812F4E0620261174A126872
:105B000012F007020A60704781B00C490968C908A1
:105B10004FF47A72B1FBF2F101FB00F1009100BF8A
:105B200000994A1E00920029F9D101B07047000087
:105B3000001002400410024000127A000C00002005
:105B40002410024000004242800442421C100240E5
:105B500000700040201002406000424200200240DD
:105B60003086000810860008AE2E000800093D00AF
:105B7000B486000801480068704700BF501200203A
:105B800010F0070351490A684FF6FF010A405049D7
:105B900051EA03210A434D490A6070474B480068A7
:105BA000C0F302207047012210F01F018A404949CA
:105BB00003005BB25B0941F82320704710B4020078
:105BC00052B2002A09D50A01434B040064B214F012
:105BD0000F04234403F8042C04E00A013F4B0400A3
:105BE00064B21A5510BC704770B4030013F0070478
:105BF000D4F10700052801D3042001E0D4F1070007
:105C0000251D072D01D2002500E0E51E012616FA0C
:105C100000F0401E0140A940012010FA05F56D1E5C
:105C20002A401143080070BC704710B50400601E84
:105C3000B0F1807F01D301200EE0601E284908608A
:105C40000F215FF0FF30FFF7B9FF00202549086002
:105C5000072025490860002010BD10B50400200071
:105C6000FFF78EFF10BD2DE9F04104000D00160076
:105C70000027FFF793FF8046320029004046FFF7D8
:105C8000B3FF0100200040B2FFF798FFBDE8F081AC
:105C900010B50400200040B2FFF785FF10BD10B51D
:105CA00004002000FFF7C1FF10BD042806D10E49F3
:105CB000096851F004010C4A116005E00A490968BD
:105CC00031F00401084A1160704700000CED00E05B
:105CD0000000FA0500E100E018ED00E000E400E05B
:105CE00014E000E018E000E010E000E02DE9F843E7
:105CF000020000240025002600275FF000085FF066
:105D0000000EBEF1100F80F00681012010FA0EF097
:105D10000400086820400500A54240F0F98048686A
:105D2000002831D0012820D0022825D003283CD0DB
:105D300011281DD0122823D0DFF81CC2604523D0C3
:105D4000DFF818C260451FD0DFF814C260451BD0D1
:105D5000DFF810C2604517D0DFF80CC2604513D0E1
:105D6000DFF808C260450FD022E0C86807001FE0D6
:105D7000C868001D07001BE0C8680830070017E06E
:105D8000C8680C30070013E08868002802D104209E
:105D9000070009E08868012803D108200700146182
:105DA00002E008200700546102E000200700FFE73E
:105DB000B5F5807F01D2130000E0131DB5F5807F9B
:105DC00002D25FEA8E0803E0BEF108085FEA8808A5
:105DD000D3F800C00F2010FA08F03CEA000C17FAC4
:105DE00008F050EA0C0CC3F800C04868C00040F14D
:105DF0008F805F48006850F00100DFF874C1CCF874
:105E000000005B48006810F00100009000985948BD
:105E1000F4465FEA9C0C50F82CC05FF00F091EF0AE
:105E20000300C0B2800019FA00F93CEA090C52489C
:105E3000824202D15FF0000913E05048824202D151
:105E40005FF001090DE04E48824202D15FF0020985
:105E500007E04C48824202D15FF0030901E05FF0A5
:105E6000040966461EF00300C0B2800019FA00F96A
:105E700059EA06063F48F4465FEA9C0C40F82C605D
:105E80004868C00307D5404800682843DFF8F8C0D9
:105E9000CCF8000006E03C480068A843DFF8E8C002
:105EA000CCF800004868800307D5384800682843CC
:105EB000DFF8D8C0CCF8000006E034480068A843FA
:105EC000DFF8C8C0CCF800004868C00207D53048E9
:105ED00000682843DFF8B8C0CCF8000006E02C4882
:105EE0000068A843DFF8A8C0CCF80000486880022A
:105EF00007D5284800682843DFF898C0CCF8000090
:105F000006E024480068A843DFF888C0CCF8000009
:105F10001EF1010EF5E6BDE8F183020090680B006A
:105F20009BB2184201D0012000E00020C0B27047AF
:105F30001300DBB2002B03D00B009BB2036103E024
:105F40000B009BB21B0403617047C3680A0092B246
:105F50005340C36070470000000011100000121091
:105F6000000021100000221000003110000032104B
:105F7000181002400800014000080140000C0140D8
:105F800000100140001401400004014004040140DD
:105F9000080401400C0401400120014908607047D9
:105FA00020000E422DE9F84187B0040000250026AC
:105FB000002221001920FFF756FE1920FFF768FE86
:105FC0001A48006850F400601849086017480068D3
:105FD00010F400600090009801A902A8FFF777FD77
:105FE000FFF76AFD07001248B7FBF0F8B8F10108A7
:105FF00010481149086040F2E7300F49C8600E4868
:10600000C0F8048000200C49086100200A4988601B
:10601000094800F013F8002803D1074800F054F8AD
:1060200000E0012008B0BDE8F08100001810024037
:1060300040420F00002C01403411002010B5040034
:10604000002C01D1012014E094F83D00002805D176
:10605000002084F83C002000FFF7CFF9022084F8EC
:106060003D00211D206800F0A2F9012084F83D00C8
:10607000002010BD0100022081F83D000868006882
:1060800050F001000A681060012081F83D000020F6
:1060900070470100022081F83D000868006A41F263
:1060A000111210420BD10868006A40F244421042BB
:1060B00005D108680068400840000A6810600120A7
:1060C00081F83D000020704701000868C06850F06A
:1060D00001000A68D0600868006850F001000A6892
:1060E00010600020704701000868C0684008400048
:1060F0000A68D0600868006A41F2111210420BD1A0
:106100000868006A40F24442104205D108680068FD
:10611000400840000A6810600020704710B5040075
:106120002068006980071AD52068C068800716D5E6
:106130007FF00200216808610120207720688069D3
:1061400010F0030F03D0200000F0AFF905E02000AD
:1061500000F0ACF9200000F0AAF9002020772068B8
:10616000006940071AD52068C068400716D57FF03F
:10617000040021680861022020772068806910F4FB
:10618000407F03D0200000F090F905E0200000F0EF
:106190008DF9200000F08BF900202077206800693D
:1061A00000071AD52068C068000716D57FF00800E0
:1061B00021680861042020772068C06910F0030F6F
:1061C00003D0200000F071F905E0200000F06EF926
:1061D000200000F06CF90020207720680069C006DC
:1061E0001AD52068C068C00616D57FF01000216857
:1061F0000861082020772068C06910F4407F03D030
:10620000200000F052F905E0200000F04FF92000D6
:1062100000F04DF90020207720680069C0070AD5FA
:106220002068C068C00706D57FF0010021680861BA
:10623000200000F0E4FA2068006900060AD5206812
:10624000C068000606D57FF0800021680861200044
:1062500000F003FB2068006940060AD52068C0688A
:10626000400606D57FF0400021680861200000F05C
:10627000F5FA2068006980060AD52068C0688006A3
:1062800006D57FF0200021680861200000F0E7FAC1
:1062900010BD70B504000D00002194F83C000128E9
:1062A00001D1022082E0012084F83C00022084F821
:1062B0003D002068866836F0770636F47F46206811
:1062C00086602868002856D0102859D020285CD035
:1062D00030285FD0402844D050282ED0602836D0B7
:1062E00070280DD0B0F5805F03D0B0F5005F17D0F7
:1062F00055E020688068C008C000216888604EE0D2
:10630000EB686A68A968206800F0C2F820688068B5
:1063100030F0770050F077000600206886603EE09D
:10632000EB686A68A968206800F0B2F820688068A5
:1063300050F480402168886031E0EA68696820682C
:1063400000F070F85021206800F095F827E0EA6826
:106350006968206800F07AF86021206800F08BF806
:106360001DE0EA686968206800F05CF84021206858
